{
  "contractName": "StructStorage",
  "abi": [
    {
      "constant": true,
      "inputs": [],
      "name": "c",
      "outputs": [
        {
          "internalType": "uint256",
          "name": "",
          "type": "uint256"
        }
      ],
      "payable": false,
      "stateMutability": "view",
      "type": "function"
    },
    {
      "constant": true,
      "inputs": [
        {
          "internalType": "bytes",
          "name": "",
          "type": "bytes"
        }
      ],
      "name": "farmers",
      "outputs": [
        {
          "internalType": "bytes",
          "name": "fid",
          "type": "bytes"
        },
        {
          "internalType": "bytes32",
          "name": "fname",
          "type": "bytes32"
        },
        {
          "internalType": "bytes32",
          "name": "loc",
          "type": "bytes32"
        },
        {
          "internalType": "bytes32",
          "name": "crop",
          "type": "bytes32"
        },
        {
          "internalType": "uint256",
          "name": "contact",
          "type": "uint256"
        },
        {
          "internalType": "uint256",
          "name": "quantity",
          "type": "uint256"
        },
        {
          "internalType": "uint256",
          "name": "exprice",
          "type": "uint256"
        }
      ],
      "payable": false,
      "stateMutability": "view",
      "type": "function"
    },
    {
      "constant": true,
      "inputs": [
        {
          "internalType": "uint256",
          "name": "",
          "type": "uint256"
        }
      ],
      "name": "fm",
      "outputs": [
        {
          "internalType": "bytes",
          "name": "fid",
          "type": "bytes"
        },
        {
          "internalType": "bytes32",
          "name": "fname",
          "type": "bytes32"
        },
        {
          "internalType": "bytes32",
          "name": "loc",
          "type": "bytes32"
        },
        {
          "internalType": "bytes32",
          "name": "crop",
          "type": "bytes32"
        },
        {
          "internalType": "uint256",
          "name": "contact",
          "type": "uint256"
        },
        {
          "internalType": "uint256",
          "name": "quantity",
          "type": "uint256"
        },
        {
          "internalType": "uint256",
          "name": "exprice",
          "type": "uint256"
        }
      ],
      "payable": false,
      "stateMutability": "view",
      "type": "function"
    },
    {
      "constant": true,
      "inputs": [
        {
          "internalType": "uint256",
          "name": "",
          "type": "uint256"
        }
      ],
      "name": "l",
      "outputs": [
        {
          "internalType": "bytes",
          "name": "lotno",
          "type": "bytes"
        },
        {
          "internalType": "bytes",
          "name": "grade",
          "type": "bytes"
        },
        {
          "internalType": "uint256",
          "name": "mrp",
          "type": "uint256"
        },
        {
          "internalType": "bytes32",
          "name": "testdate",
          "type": "bytes32"
        },
        {
          "internalType": "bytes32",
          "name": "expdate",
          "type": "bytes32"
        }
      ],
      "payable": false,
      "stateMutability": "view",
      "type": "function"
    },
    {
      "constant": true,
      "inputs": [],
      "name": "s",
      "outputs": [
        {
          "internalType": "uint256",
          "name": "",
          "type": "uint256"
        }
      ],
      "payable": false,
      "stateMutability": "view",
      "type": "function"
    },
    {
      "constant": true,
      "inputs": [],
      "name": "t",
      "outputs": [
        {
          "internalType": "uint256",
          "name": "",
          "type": "uint256"
        }
      ],
      "payable": false,
      "stateMutability": "view",
      "type": "function"
    },
    {
      "constant": true,
      "inputs": [],
      "name": "tester",
      "outputs": [
        {
          "internalType": "address",
          "name": "",
          "type": "address"
        }
      ],
      "payable": false,
      "stateMutability": "view",
      "type": "function"
    },
    {
      "constant": true,
      "inputs": [
        {
          "internalType": "bytes",
          "name": "_fid",
          "type": "bytes"
        }
      ],
      "name": "getFarmer",
      "outputs": [
        {
          "internalType": "bytes32",
          "name": "",
          "type": "bytes32"
        },
        {
          "internalType": "bytes32",
          "name": "",
          "type": "bytes32"
        },
        {
          "internalType": "bytes32",
          "name": "",
          "type": "bytes32"
        },
        {
          "internalType": "uint256",
          "name": "",
          "type": "uint256"
        },
        {
          "internalType": "uint256",
          "name": "",
          "type": "uint256"
        },
        {
          "internalType": "uint256",
          "name": "",
          "type": "uint256"
        }
      ],
      "payable": false,
      "stateMutability": "view",
      "type": "function"
    },
    {
      "constant": false,
      "inputs": [
        {
          "internalType": "address",
          "name": "addr",
          "type": "address"
        }
      ],
      "name": "fundaddr",
      "outputs": [],
      "payable": false,
      "stateMutability": "nonpayable",
      "type": "function"
    },
    {
      "constant": false,
      "inputs": [
        {
          "internalType": "address",
          "name": "receiver",
          "type": "address"
        },
        {
          "internalType": "uint256",
          "name": "amount",
          "type": "uint256"
        },
        {
          "internalType": "address",
          "name": "sender",
          "type": "address"
        }
      ],
      "name": "sendCoin",
      "outputs": [
        {
          "internalType": "bool",
          "name": "sufficient",
          "type": "bool"
        }
      ],
      "payable": false,
      "stateMutability": "nonpayable",
      "type": "function"
    },
    {
      "constant": true,
      "inputs": [
        {
          "internalType": "address",
          "name": "addr",
          "type": "address"
        }
      ],
      "name": "getBalance",
      "outputs": [
        {
          "internalType": "uint256",
          "name": "",
          "type": "uint256"
        }
      ],
      "payable": false,
      "stateMutability": "view",
      "type": "function"
    },
    {
      "constant": false,
      "inputs": [
        {
          "internalType": "bytes",
          "name": "id",
          "type": "bytes"
        },
        {
          "internalType": "bytes32",
          "name": "name",
          "type": "bytes32"
        },
        {
          "internalType": "bytes32",
          "name": "loc",
          "type": "bytes32"
        },
        {
          "internalType": "bytes32",
          "name": "cr",
          "type": "bytes32"
        },
        {
          "internalType": "uint256",
          "name": "con",
          "type": "uint256"
        },
        {
          "internalType": "uint256",
          "name": "q",
          "type": "uint256"
        },
        {
          "internalType": "uint256",
          "name": "pr",
          "type": "uint256"
        }
      ],
      "name": "produce",
      "outputs": [],
      "payable": false,
      "stateMutability": "nonpayable",
      "type": "function"
    },
    {
      "constant": true,
      "inputs": [
        {
          "internalType": "bytes",
          "name": "j",
          "type": "bytes"
        }
      ],
      "name": "getproduce",
      "outputs": [
        {
          "internalType": "bytes",
          "name": "",
          "type": "bytes"
        },
        {
          "internalType": "bytes32",
          "name": "",
          "type": "bytes32"
        },
        {
          "internalType": "bytes32",
          "name": "",
          "type": "bytes32"
        },
        {
          "internalType": "bytes32",
          "name": "",
          "type": "bytes32"
        },
        {
          "internalType": "uint256",
          "name": "",
          "type": "uint256"
        },
        {
          "internalType": "uint256",
          "name": "",
          "type": "uint256"
        },
        {
          "internalType": "uint256",
          "name": "",
          "type": "uint256"
        }
      ],
      "payable": false,
      "stateMutability": "view",
      "type": "function"
    },
    {
      "constant": false,
      "inputs": [
        {
          "internalType": "bytes",
          "name": "ll",
          "type": "bytes"
        },
        {
          "internalType": "bytes",
          "name": "g",
          "type": "bytes"
        },
        {
          "internalType": "uint256",
          "name": "p",
          "type": "uint256"
        },
        {
          "internalType": "bytes32",
          "name": "tt",
          "type": "bytes32"
        },
        {
          "internalType": "bytes32",
          "name": "e",
          "type": "bytes32"
        }
      ],
      "name": "quality",
      "outputs": [],
      "payable": false,
      "stateMutability": "nonpayable",
      "type": "function"
    },
    {
      "constant": true,
      "inputs": [
        {
          "internalType": "bytes",
          "name": "k",
          "type": "bytes"
        }
      ],
      "name": "getquality",
      "outputs": [
        {
          "internalType": "bytes",
          "name": "",
          "type": "bytes"
        },
        {
          "internalType": "bytes",
          "name": "",
          "type": "bytes"
        },
        {
          "internalType": "uint256",
          "name": "",
          "type": "uint256"
        },
        {
          "internalType": "bytes32",
          "name": "",
          "type": "bytes32"
        },
        {
          "internalType": "bytes32",
          "name": "",
          "type": "bytes32"
        }
      ],
      "payable": false,
      "stateMutability": "view",
      "type": "function"
    }
  ],
  "bytecode": "0x60806040526001600055600160025534801561001a57600080fd5b50611eea8061002a6000396000f3fe608060405234801561001057600080fd5b50600436106100f55760003560e01c80638308abd411610097578063bb7d87f811610066578063bb7d87f814610a6b578063c3da42b814610bc9578063f8b2cb4f14610be7578063fb5ade3114610c3f576100f5565b80638308abd41461095f57806386b714e2146109a957806392d0d153146109c7578063b81e3a50146109e5576100f5565b806336f51efc116100d357806336f51efc146104995780635487e06e1461058b57806354bb1361146106825780635ef53ded146107aa576100f5565b806304eb580c146100fa57806307467a021461026a5780632c6d8fa71461033b575b600080fd5b610268600480360360a081101561011057600080fd5b810190808035906020019064010000000081111561012d57600080fd5b82018360208201111561013f57600080fd5b8035906020019184600183028401116401000000008311171561016157600080fd5b91908080601f016020809104026020016040519081016040528093929190818152602001838380828437600081840152601f19601f820116905080830192505050505050509192919290803590602001906401000000008111156101c457600080fd5b8201836020820111156101d657600080fd5b803590602001918460018302840111640100000000831117156101f857600080fd5b91908080601f016020809104026020016040519081016040528093929190818152602001838380828437600081840152601f19601f820116905080830192505050505050509192919290803590602001909291908035906020019092919080359060200190929190505050610c83565b005b6102966004803603602081101561028057600080fd5b8101908080359060200190929190505050610e1c565b6040518080602001888152602001878152602001868152602001858152602001848152602001838152602001828103825289818151815260200191508051906020019080838360005b838110156102fa5780820151818401526020810190506102df565b50505050905090810190601f1680156103275780820380516001836020036101000a031916815260200191505b509850505050505050505060405180910390f35b6103f46004803603602081101561035157600080fd5b810190808035906020019064010000000081111561036e57600080fd5b82018360208201111561038057600080fd5b803590602001918460018302840111640100000000831117156103a257600080fd5b91908080601f016020809104026020016040519081016040528093929190818152602001838380828437600081840152601f19601f820116905080830192505050505050509192919290505050610f03565b6040518080602001888152602001878152602001868152602001858152602001848152602001838152602001828103825289818151815260200191508051906020019080838360005b8381101561045857808201518184015260208101905061043d565b50505050905090810190601f1680156104855780820380516001836020036101000a031916815260200191505b509850505050505050505060405180910390f35b610552600480360360208110156104af57600080fd5b81019080803590602001906401000000008111156104cc57600080fd5b8201836020820111156104de57600080fd5b8035906020019184600183028401116401000000008311171561050057600080fd5b91908080601f016020809104026020016040519081016040528093929190818152602001838380828437600081840152601f19601f8201169050808301925050505050505091929192905050506112bd565b60405180878152602001868152602001858152602001848152602001838152602001828152602001965050505050505060405180910390f35b610680600480360360e08110156105a157600080fd5b81019080803590602001906401000000008111156105be57600080fd5b8201836020820111156105d057600080fd5b803590602001918460018302840111640100000000831117156105f257600080fd5b91908080601f016020809104026020016040519081016040528093929190818152602001838380828437600081840152601f19601f820116905080830192505050505050509192919290803590602001909291908035906020019092919080359060200190929190803590602001909291908035906020019092919080359060200190929190505050611456565b005b6106ae6004803603602081101561069857600080fd5b81019080803590602001909291905050506115fe565b604051808060200180602001868152602001858152602001848152602001838103835288818151815260200191508051906020019080838360005b838110156107045780820151818401526020810190506106e9565b50505050905090810190601f1680156107315780820380516001836020036101000a031916815260200191505b50838103825287818151815260200191508051906020019080838360005b8381101561076a57808201518184015260208101905061074f565b50505050905090810190601f1680156107975780820380516001836020036101000a031916815260200191505b5097505050505050505060405180910390f35b610863600480360360208110156107c057600080fd5b81019080803590602001906401000000008111156107dd57600080fd5b8201836020820111156107ef57600080fd5b8035906020019184600183028401116401000000008311171561081157600080fd5b91908080601f016020809104026020016040519081016040528093929190818152602001838380828437600081840152601f19601f820116905080830192505050505050509192919290505050611771565b604051808060200180602001868152602001858152602001848152602001838103835288818151815260200191508051906020019080838360005b838110156108b957808201518184015260208101905061089e565b50505050905090810190601f1680156108e65780820380516001836020036101000a031916815260200191505b50838103825287818151815260200191508051906020019080838360005b8381101561091f578082015181840152602081019050610904565b50505050905090810190601f16801561094c5780820380516001836020036101000a031916815260200191505b5097505050505050505060405180910390f35b610967611ae3565b604051808273ffffffffffffffffffffffffffffffffffffffff1673ffffffffffffffffffffffffffffffffffffffff16815260200191505060405180910390f35b6109b1611b09565b6040518082815260200191505060405180910390f35b6109cf611b0f565b6040518082815260200191505060405180910390f35b610a51600480360360608110156109fb57600080fd5b81019080803573ffffffffffffffffffffffffffffffffffffffff16906020019092919080359060200190929190803573ffffffffffffffffffffffffffffffffffffffff169060200190929190505050611b15565b604051808215151515815260200191505060405180910390f35b610b2460048036036020811015610a8157600080fd5b8101908080359060200190640100000000811115610a9e57600080fd5b820183602082011115610ab057600080fd5b80359060200191846001830284011164010000000083111715610ad257600080fd5b91908080601f016020809104026020016040519081016040528093929190818152602001838380828437600081840152601f19601f820116905080830192505050505050509192919290505050611c0d565b6040518080602001888152602001878152602001868152602001858152602001848152602001838152602001828103825289818151815260200191508051906020019080838360005b83811015610b88578082015181840152602081019050610b6d565b50505050905090810190601f168015610bb55780820380516001836020036101000a031916815260200191505b509850505050505050505060405180910390f35b610bd1611cfd565b6040518082815260200191505060405180910390f35b610c2960048036036020811015610bfd57600080fd5b81019080803573ffffffffffffffffffffffffffffffffffffffff169060200190929190505050611d03565b6040518082815260200191505060405180910390f35b610c8160048036036020811015610c5557600080fd5b81019080803573ffffffffffffffffffffffffffffffffffffffff169060200190929190505050611d4c565b005b610c8b611d95565b6040518060a00160405280878152602001868152602001858152602001848152602001838152509050806009876040518082805190602001908083835b60208310610ceb5780518252602082019150602081019050602083039250610cc8565b6001836020036101000a03801982511681845116808217855250505050505090500191505090815260200160405180910390206000820151816000019080519060200190610d3a929190611dca565b506020820151816001019080519060200190610d57929190611dca565b50604082015181600201556060820151816003015560808201518160040155905050600a81908060018154018082558091505090600182039060005260206000209060050201600090919290919091506000820151816000019080519060200190610dc3929190611dca565b506020820151816001019080519060200190610de0929190611dca565b50604082015181600201556060820151816003015560808201518160040155505050600260008154809291906001019190505550505050505050565b60088181548110610e2957fe5b9060005260206000209060070201600091509050806000018054600181600116156101000203166002900480601f016020809104026020016040519081016040528092919081815260200182805460018160011615610100020316600290048015610ed55780601f10610eaa57610100808354040283529160200191610ed5565b820191906000526020600020905b815481529060010190602001808311610eb857829003601f168201915b5050505050908060010154908060020154908060030154908060040154908060050154908060060154905087565b60606000806000806000806007886040518082805190602001908083835b60208310610f445780518252602082019150602081019050602083039250610f21565b6001836020036101000a03801982511681845116808217855250505050505090500191505090815260200160405180910390206000016007896040518082805190602001908083835b60208310610fb05780518252602082019150602081019050602083039250610f8d565b6001836020036101000a03801982511681845116808217855250505050505090500191505090815260200160405180910390206001015460078a6040518082805190602001908083835b6020831061101d5780518252602082019150602081019050602083039250610ffa565b6001836020036101000a03801982511681845116808217855250505050505090500191505090815260200160405180910390206002015460078b6040518082805190602001908083835b6020831061108a5780518252602082019150602081019050602083039250611067565b6001836020036101000a03801982511681845116808217855250505050505090500191505090815260200160405180910390206003015460078c6040518082805190602001908083835b602083106110f757805182526020820191506020810190506020830392506110d4565b6001836020036101000a03801982511681845116808217855250505050505090500191505090815260200160405180910390206004015460078d6040518082805190602001908083835b602083106111645780518252602082019150602081019050602083039250611141565b6001836020036101000a03801982511681845116808217855250505050505090500191505090815260200160405180910390206005015460078e6040518082805190602001908083835b602083106111d157805182526020820191506020810190506020830392506111ae565b6001836020036101000a038019825116818451168082178552505050505050905001915050908152602001604051809103902060060154868054600181600116156101000203166002900480601f01602080910402602001604051908101604052809291908181526020018280546001816001161561010002031660029004801561129d5780601f106112725761010080835404028352916020019161129d565b820191906000526020600020905b81548152906001019060200180831161128057829003601f168201915b505050505096509650965096509650965096509650919395979092949650565b6000806000806000806112ce611e4a565b6004886040518082805190602001908083835b6020831061130457805182526020820191506020810190506020830392506112e1565b6001836020036101000a03801982511681845116808217855250505050505090500191505090815260200160405180910390206040518060e0016040529081600082018054600181600116156101000203166002900480601f0160208091040260200160405190810160405280929190818152602001828054600181600116156101000203166002900480156113db5780601f106113b0576101008083540402835291602001916113db565b820191906000526020600020905b8154815290600101906020018083116113be57829003601f168201915b505050505081526020016001820154815260200160028201548152602001600382015481526020016004820154815260200160058201548152602001600682015481525050905080602001518160400151826060015183608001518460a001518560c001519650965096509650965096505091939550919395565b61145e611e4a565b6040518060e00160405280898152602001888152602001878152602001868152602001858152602001848152602001838152509050806007896040518082805190602001908083835b602083106114ca57805182526020820191506020810190506020830392506114a7565b6001836020036101000a03801982511681845116808217855250505050505090500191505090815260200160405180910390206000820151816000019080519060200190611519929190611dca565b506020820151816001015560408201518160020155606082015181600301556080820151816004015560a0820151816005015560c082015181600601559050506008819080600181540180825580915050906001820390600052602060002090600702016000909192909190915060008201518160000190805190602001906115a3929190611dca565b506020820151816001015560408201518160020155606082015181600301556080820151816004015560a0820151816005015560c0820151816006015550505060008081548092919060010191905055505050505050505050565b600a818154811061160b57fe5b9060005260206000209060050201600091509050806000018054600181600116156101000203166002900480601f0160208091040260200160405190810160405280929190818152602001828054600181600116156101000203166002900480156116b75780601f1061168c576101008083540402835291602001916116b7565b820191906000526020600020905b81548152906001019060200180831161169a57829003601f168201915b505050505090806001018054600181600116156101000203166002900480601f0160208091040260200160405190810160405280929190818152602001828054600181600116156101000203166002900480156117555780601f1061172a57610100808354040283529160200191611755565b820191906000526020600020905b81548152906001019060200180831161173857829003601f168201915b5050505050908060020154908060030154908060040154905085565b60608060008060006009866040518082805190602001908083835b602083106117af578051825260208201915060208101905060208303925061178c565b6001836020036101000a03801982511681845116808217855250505050505090500191505090815260200160405180910390206000016009876040518082805190602001908083835b6020831061181b57805182526020820191506020810190506020830392506117f8565b6001836020036101000a03801982511681845116808217855250505050505090500191505090815260200160405180910390206001016009886040518082805190602001908083835b602083106118875780518252602082019150602081019050602083039250611864565b6001836020036101000a0380198251168184511680821785525050505050509050019150509081526020016040518091039020600201546009896040518082805190602001908083835b602083106118f457805182526020820191506020810190506020830392506118d1565b6001836020036101000a03801982511681845116808217855250505050505090500191505090815260200160405180910390206003015460098a6040518082805190602001908083835b60208310611961578051825260208201915060208101905060208303925061193e565b6001836020036101000a038019825116818451168082178552505050505050905001915050908152602001604051809103902060040154848054600181600116156101000203166002900480601f016020809104026020016040519081016040528092919081815260200182805460018160011615610100020316600290048015611a2d5780601f10611a0257610100808354040283529160200191611a2d565b820191906000526020600020905b815481529060010190602001808311611a1057829003601f168201915b50505050509450838054600181600116156101000203166002900480601f016020809104026020016040519081016040528092919081815260200182805460018160011615610100020316600290048015611ac95780601f10611a9e57610100808354040283529160200191611ac9565b820191906000526020600020905b815481529060010190602001808311611aac57829003601f168201915b505050505093509450945094509450945091939590929450565b600560009054906101000a900473ffffffffffffffffffffffffffffffffffffffff1681565b60005481565b60025481565b600082600360008473ffffffffffffffffffffffffffffffffffffffff1673ffffffffffffffffffffffffffffffffffffffff168152602001908152602001600020541015611b675760009050611c06565b82600360008473ffffffffffffffffffffffffffffffffffffffff1673ffffffffffffffffffffffffffffffffffffffff1681526020019081526020016000206000828254039250508190555082600360008673ffffffffffffffffffffffffffffffffffffffff1673ffffffffffffffffffffffffffffffffffffffff16815260200190815260200160002060008282540192505081905550600190505b9392505050565b600481805160208101820180518482526020830160208501208183528095505050505050600091509050806000018054600181600116156101000203166002900480601f016020809104026020016040519081016040528092919081815260200182805460018160011615610100020316600290048015611ccf5780601f10611ca457610100808354040283529160200191611ccf565b820191906000526020600020905b815481529060010190602001808311611cb257829003601f168201915b5050505050908060010154908060020154908060030154908060040154908060050154908060060154905087565b60015481565b6000600360008373ffffffffffffffffffffffffffffffffffffffff1673ffffffffffffffffffffffffffffffffffffffff168152602001908152602001600020549050919050565b6107d0600360008373ffffffffffffffffffffffffffffffffffffffff1673ffffffffffffffffffffffffffffffffffffffff1681526020019081526020016000208190555050565b6040518060a0016040528060608152602001606081526020016000815260200160008019168152602001600080191681525090565b828054600181600116156101000203166002900490600052602060002090601f016020900481019282601f10611e0b57805160ff1916838001178555611e39565b82800160010185558215611e39579182015b82811115611e38578251825591602001919060010190611e1d565b5b509050611e469190611e90565b5090565b6040518060e00160405280606081526020016000801916815260200160008019168152602001600080191681526020016000815260200160008152602001600081525090565b611eb291905b80821115611eae576000816000905550600101611e96565b5090565b9056fea265627a7a72315820cd080c0389bf73565b4b2785dbebc3e08902d71763366ec8d7f9a0e2ec42c9ac64736f6c63430005100032",
  "source": "pragma solidity ^0.5.0;\r\n\r\ncontract StructStorage {\r\n\r\n    uint256 public s = 1; \r\n    uint256 public c;\r\n    uint256 public t=1;\r\n    mapping (address => uint) balances;\r\n    mapping(bytes => farmer) public farmers;\r\n\r\nfunction getFarmer(bytes memory _fid) public view returns (bytes32, bytes32, bytes32, uint256, uint, uint) {\r\n    farmer memory f = farmers[_fid];\r\n    return (f.fname, f.loc, f.crop, f.contact, f.quantity, f.exprice);\r\n}\r\n\r\n\r\n    function fundaddr(address addr) public{\r\n        balances[addr] = 2000;\r\n    }\r\n\r\n        function sendCoin(address receiver, uint amount, address sender) public returns(bool sufficient){\r\n        \r\n        \r\n        if (balances[sender] < amount) \r\n        return false;\r\n        \r\n        balances[sender] -= amount;\r\n        balances[receiver] += amount;\r\n        \r\n                        \r\n        return true;\r\n        \r\n    }\r\n\r\n    function getBalance(address addr) view public returns(uint){\r\n        return balances[addr];\r\n    }\r\nstruct farmer {\r\n   \r\n    bytes fid;\r\n    bytes32 fname;\r\n    bytes32 loc;\r\n    bytes32 crop;\r\n    uint256 contact;\r\n    uint quantity;\r\n    uint exprice;\r\n}\r\n\r\nstruct lot {\r\n\r\n    bytes lotno;\r\n    bytes grade;\r\n    uint mrp;\r\n    bytes32 testdate;\r\n    bytes32 expdate;\r\n}\r\n\r\naddress public tester;\r\naddress owner;\r\n\r\nmapping (bytes => farmer) f1;\r\nfarmer[] public fm;\r\n\r\nmapping (bytes => lot) l1;\r\nlot[] public l;\r\n\r\n\r\n\r\nfunction produce(bytes memory id, bytes32 name, bytes32 loc, bytes32 cr, uint256 con, uint q, uint pr) public{\r\n               \r\n        StructStorage.farmer memory fnew = farmer(id,name,loc,cr,con,q,pr);\r\n        f1[id] = fnew;\r\n        fm.push(fnew);\r\n        s++;\r\n  \r\n}\r\n    \r\n function getproduce(bytes memory j) public view returns(bytes memory,bytes32,bytes32,bytes32,uint256,uint,uint) {\r\n        return (f1[j].fid,f1[j].fname,f1[j].loc,f1[j].crop,f1[j].contact,f1[j].quantity,f1[j].exprice);\r\n    }\r\n function quality(bytes memory ll, bytes memory g, uint256 p, bytes32 tt, bytes32 e) public{\r\n    \r\n        StructStorage.lot memory lnew=lot(ll,g,p,tt,e);\r\n        l1[ll]=lnew;\r\n        l.push(lnew);\r\n        t++;\r\n  \r\n }  \r\n function getquality(bytes memory k) public view returns(bytes memory,bytes memory,uint,bytes32,bytes32) {\r\n     return(l1[k].lotno,l1[k].grade,l1[k].mrp,l1[k].testdate,l1[k].expdate);\r\n     \r\n }\r\n}\r\n",
  "sourcePath": "C:\\Users\\kasus\\Downloads\\AgroChain-master\\AgroChain-master\\contracts\\StructStorage.sol",
  "compiler": {
    "name": "solc",
    "version": "0.5.16+commit.9c3226ce.Emscripten.clang"
  },
  "schemaVersion": "3.4.16",
  "updatedAt": "2025-03-26T15:28:34.971Z",
  "devdoc": {
    "methods": {}
  },
  "userdoc": {
    "methods": {}
  }
}